{
  "_format": "hh-sol-artifact-1",
  "contractName": "Game",
  "sourceName": "contracts/Game.sol",
  "abi": [
    {
      "inputs": [
        {
          "internalType": "address",
          "name": "_wantToken",
          "type": "address"
        },
        {
          "internalType": "string",
          "name": "_gameTitle",
          "type": "string"
        },
        {
          "internalType": "string",
          "name": "_version",
          "type": "string"
        },
        {
          "internalType": "uint256",
          "name": "_maxPlayers",
          "type": "uint256"
        },
        {
          "internalType": "uint256",
          "name": "_minPlayers",
          "type": "uint256"
        }
      ],
      "stateMutability": "nonpayable",
      "type": "constructor"
    },
    {
      "anonymous": false,
      "inputs": [
        {
          "indexed": false,
          "internalType": "string",
          "name": "id",
          "type": "string"
        }
      ],
      "name": "LobbyGenerated",
      "type": "event"
    },
    {
      "anonymous": false,
      "inputs": [
        {
          "indexed": false,
          "internalType": "string",
          "name": "id",
          "type": "string"
        }
      ],
      "name": "LobbyResult",
      "type": "event"
    },
    {
      "inputs": [
        {
          "internalType": "address",
          "name": "",
          "type": "address"
        }
      ],
      "name": "accountBalances",
      "outputs": [
        {
          "internalType": "uint256",
          "name": "",
          "type": "uint256"
        }
      ],
      "stateMutability": "view",
      "type": "function"
    },
    {
      "inputs": [
        {
          "internalType": "address",
          "name": "",
          "type": "address"
        }
      ],
      "name": "accounts",
      "outputs": [
        {
          "internalType": "bool",
          "name": "",
          "type": "bool"
        }
      ],
      "stateMutability": "view",
      "type": "function"
    },
    {
      "inputs": [
        {
          "internalType": "address",
          "name": "operator",
          "type": "address"
        }
      ],
      "name": "addOperator",
      "outputs": [],
      "stateMutability": "nonpayable",
      "type": "function"
    },
    {
      "inputs": [
        {
          "components": [
            {
              "internalType": "string",
              "name": "id",
              "type": "string"
            },
            {
              "internalType": "address",
              "name": "player",
              "type": "address"
            },
            {
              "internalType": "uint256",
              "name": "amount",
              "type": "uint256"
            },
            {
              "internalType": "bytes",
              "name": "signature",
              "type": "bytes"
            }
          ],
          "internalType": "struct Game.ticket[]",
          "name": "tickets",
          "type": "tuple[]"
        },
        {
          "internalType": "string",
          "name": "lobbyId",
          "type": "string"
        },
        {
          "internalType": "uint256",
          "name": "operatorsShare",
          "type": "uint256"
        },
        {
          "internalType": "uint256",
          "name": "lobbyTimeout",
          "type": "uint256"
        }
      ],
      "name": "createLobby",
      "outputs": [
        {
          "internalType": "bool",
          "name": "",
          "type": "bool"
        }
      ],
      "stateMutability": "nonpayable",
      "type": "function"
    },
    {
      "inputs": [],
      "name": "createNewAccount",
      "outputs": [],
      "stateMutability": "payable",
      "type": "function"
    },
    {
      "inputs": [
        {
          "internalType": "uint256",
          "name": "_initialDeposit",
          "type": "uint256"
        }
      ],
      "name": "createNewAccount",
      "outputs": [],
      "stateMutability": "nonpayable",
      "type": "function"
    },
    {
      "inputs": [],
      "name": "currentSeason",
      "outputs": [
        {
          "internalType": "uint256",
          "name": "",
          "type": "uint256"
        }
      ],
      "stateMutability": "view",
      "type": "function"
    },
    {
      "inputs": [],
      "name": "depositBalances",
      "outputs": [],
      "stateMutability": "payable",
      "type": "function"
    },
    {
      "inputs": [
        {
          "internalType": "uint256",
          "name": "_amountIn",
          "type": "uint256"
        }
      ],
      "name": "depositBalances",
      "outputs": [],
      "stateMutability": "nonpayable",
      "type": "function"
    },
    {
      "inputs": [],
      "name": "destroyGovernance",
      "outputs": [],
      "stateMutability": "nonpayable",
      "type": "function"
    },
    {
      "inputs": [],
      "name": "gameTitle",
      "outputs": [
        {
          "internalType": "string",
          "name": "",
          "type": "string"
        }
      ],
      "stateMutability": "view",
      "type": "function"
    },
    {
      "inputs": [],
      "name": "getBalance",
      "outputs": [
        {
          "internalType": "uint256",
          "name": "",
          "type": "uint256"
        }
      ],
      "stateMutability": "view",
      "type": "function"
    },
    {
      "inputs": [
        {
          "internalType": "string",
          "name": "id",
          "type": "string"
        }
      ],
      "name": "getLobbyPlayers",
      "outputs": [
        {
          "internalType": "address[]",
          "name": "_players",
          "type": "address[]"
        }
      ],
      "stateMutability": "view",
      "type": "function"
    },
    {
      "inputs": [],
      "name": "getOperatorsBalance",
      "outputs": [
        {
          "internalType": "uint256",
          "name": "",
          "type": "uint256"
        }
      ],
      "stateMutability": "nonpayable",
      "type": "function"
    },
    {
      "inputs": [],
      "name": "governance",
      "outputs": [
        {
          "internalType": "address",
          "name": "",
          "type": "address"
        }
      ],
      "stateMutability": "view",
      "type": "function"
    },
    {
      "inputs": [],
      "name": "isEthGame",
      "outputs": [
        {
          "internalType": "bool",
          "name": "",
          "type": "bool"
        }
      ],
      "stateMutability": "view",
      "type": "function"
    },
    {
      "inputs": [
        {
          "internalType": "string",
          "name": "",
          "type": "string"
        }
      ],
      "name": "lobbies",
      "outputs": [
        {
          "internalType": "uint256",
          "name": "pool",
          "type": "uint256"
        },
        {
          "internalType": "address",
          "name": "operator",
          "type": "address"
        },
        {
          "internalType": "uint256",
          "name": "createdAt",
          "type": "uint256"
        },
        {
          "internalType": "uint256",
          "name": "expireAt",
          "type": "uint256"
        },
        {
          "internalType": "bool",
          "name": "isValue",
          "type": "bool"
        },
        {
          "internalType": "uint256",
          "name": "operatorsShare",
          "type": "uint256"
        },
        {
          "internalType": "string",
          "name": "gameData",
          "type": "string"
        },
        {
          "internalType": "bool",
          "name": "isCompleted",
          "type": "bool"
        },
        {
          "internalType": "bool",
          "name": "operatorRedeemed",
          "type": "bool"
        }
      ],
      "stateMutability": "view",
      "type": "function"
    },
    {
      "inputs": [],
      "name": "maxPlayers",
      "outputs": [
        {
          "internalType": "uint256",
          "name": "",
          "type": "uint256"
        }
      ],
      "stateMutability": "view",
      "type": "function"
    },
    {
      "inputs": [],
      "name": "minPlayers",
      "outputs": [
        {
          "internalType": "uint256",
          "name": "",
          "type": "uint256"
        }
      ],
      "stateMutability": "view",
      "type": "function"
    },
    {
      "inputs": [],
      "name": "newSeason",
      "outputs": [],
      "stateMutability": "nonpayable",
      "type": "function"
    },
    {
      "inputs": [
        {
          "internalType": "address",
          "name": "",
          "type": "address"
        }
      ],
      "name": "operatorBalances",
      "outputs": [
        {
          "internalType": "uint256",
          "name": "",
          "type": "uint256"
        }
      ],
      "stateMutability": "view",
      "type": "function"
    },
    {
      "inputs": [
        {
          "internalType": "address",
          "name": "",
          "type": "address"
        }
      ],
      "name": "operators",
      "outputs": [
        {
          "internalType": "bool",
          "name": "",
          "type": "bool"
        }
      ],
      "stateMutability": "view",
      "type": "function"
    },
    {
      "inputs": [
        {
          "internalType": "string",
          "name": "",
          "type": "string"
        },
        {
          "internalType": "address",
          "name": "",
          "type": "address"
        }
      ],
      "name": "players",
      "outputs": [
        {
          "internalType": "uint256",
          "name": "",
          "type": "uint256"
        }
      ],
      "stateMutability": "view",
      "type": "function"
    },
    {
      "inputs": [
        {
          "internalType": "string",
          "name": "lobbyId",
          "type": "string"
        }
      ],
      "name": "redeemWinnings",
      "outputs": [
        {
          "internalType": "bool",
          "name": "",
          "type": "bool"
        }
      ],
      "stateMutability": "nonpayable",
      "type": "function"
    },
    {
      "inputs": [
        {
          "components": [
            {
              "internalType": "address",
              "name": "player",
              "type": "address"
            },
            {
              "internalType": "uint256",
              "name": "winningAmount",
              "type": "uint256"
            },
            {
              "internalType": "bytes",
              "name": "initalState",
              "type": "bytes"
            },
            {
              "internalType": "string",
              "name": "finalState",
              "type": "string"
            }
          ],
          "internalType": "struct Game.sigReq[]",
          "name": "requests",
          "type": "tuple[]"
        },
        {
          "internalType": "string",
          "name": "lobbyId",
          "type": "string"
        },
        {
          "internalType": "string",
          "name": "gameData",
          "type": "string"
        }
      ],
      "name": "submitResults",
      "outputs": [],
      "stateMutability": "nonpayable",
      "type": "function"
    },
    {
      "inputs": [
        {
          "internalType": "address",
          "name": "_governance",
          "type": "address"
        }
      ],
      "name": "transferGovernance",
      "outputs": [],
      "stateMutability": "nonpayable",
      "type": "function"
    },
    {
      "inputs": [],
      "name": "wantToken",
      "outputs": [
        {
          "internalType": "contract IERC20",
          "name": "",
          "type": "address"
        }
      ],
      "stateMutability": "view",
      "type": "function"
    },
    {
      "inputs": [
        {
          "internalType": "string",
          "name": "",
          "type": "string"
        },
        {
          "internalType": "uint256",
          "name": "",
          "type": "uint256"
        }
      ],
      "name": "winnigAmount",
      "outputs": [
        {
          "internalType": "uint256",
          "name": "",
          "type": "uint256"
        }
      ],
      "stateMutability": "view",
      "type": "function"
    },
    {
      "inputs": [],
      "name": "withdrawBalance",
      "outputs": [],
      "stateMutability": "nonpayable",
      "type": "function"
    }
  ],
  "bytecode": "0x6101406040523480156200001257600080fd5b5060405162005bc238038062005bc283398181016040528101906200003891906200044a565b838360008280519060200120905060008280519060200120905060007f8b73c3c69bb8fe3d512ecc4cf759cc79239f7b179b0ffacaa9a75d522b39400f90508260e081815250508161010081815250504660a08181525050620000a3818484620002be60201b60201c565b608081815250503073ffffffffffffffffffffffffffffffffffffffff1660c08173ffffffffffffffffffffffffffffffffffffffff1660601b815250508061012081815250505050505050600073ffffffffffffffffffffffffffffffffffffffff168573ffffffffffffffffffffffffffffffffffffffff16146200016b5784600960006101000a81548173ffffffffffffffffffffffffffffffffffffffff021916908373ffffffffffffffffffffffffffffffffffffffff16021790555062000187565b6001600960146101000a81548160ff0219169083151502179055505b83600590805190602001906200019f929190620002fa565b5033600160006101000a81548173ffffffffffffffffffffffffffffffffffffffff021916908373ffffffffffffffffffffffffffffffffffffffff16021790555081600881905550806007819055506001600a60003373ffffffffffffffffffffffffffffffffffffffff1673ffffffffffffffffffffffffffffffffffffffff16815260200190815260200160002060006101000a81548160ff0219169083151502179055506000600b60003373ffffffffffffffffffffffffffffffffffffffff1673ffffffffffffffffffffffffffffffffffffffff168152602001908152602001600020819055507f97303aab35cf582a7ead33558342fd322bd3901b0b619de9c1f372c6251f103060008190555050505050506200077a565b60008383834630604051602001620002db95949392919062000531565b6040516020818303038152906040528051906020012090509392505050565b82805462000308906200066b565b90600052602060002090601f0160209004810192826200032c576000855562000378565b82601f106200034757805160ff191683800117855562000378565b8280016001018555821562000378579182015b82811115620003775782518255916020019190600101906200035a565b5b5090506200038791906200038b565b5090565b5b80821115620003a65760008160009055506001016200038c565b5090565b6000620003c1620003bb84620005b7565b6200058e565b905082815260208101848484011115620003da57600080fd5b620003e784828562000635565b509392505050565b600081519050620004008162000746565b92915050565b600082601f8301126200041857600080fd5b81516200042a848260208601620003aa565b91505092915050565b600081519050620004448162000760565b92915050565b600080600080600060a086880312156200046357600080fd5b60006200047388828901620003ef565b955050602086015167ffffffffffffffff8111156200049157600080fd5b6200049f8882890162000406565b945050604086015167ffffffffffffffff811115620004bd57600080fd5b620004cb8882890162000406565b9350506060620004de8882890162000433565b9250506080620004f18882890162000433565b9150509295509295909350565b6200050981620005ed565b82525050565b6200051a8162000601565b82525050565b6200052b816200062b565b82525050565b600060a0820190506200054860008301886200050f565b6200055760208301876200050f565b6200056660408301866200050f565b62000575606083018562000520565b620005846080830184620004fe565b9695505050505050565b60006200059a620005ad565b9050620005a88282620006a1565b919050565b6000604051905090565b600067ffffffffffffffff821115620005d557620005d462000706565b5b620005e08262000735565b9050602081019050919050565b6000620005fa826200060b565b9050919050565b6000819050919050565b600073ffffffffffffffffffffffffffffffffffffffff82169050919050565b6000819050919050565b60005b838110156200065557808201518184015260208101905062000638565b8381111562000665576000848401525b50505050565b600060028204905060018216806200068457607f821691505b602082108114156200069b576200069a620006d7565b5b50919050565b620006ac8262000735565b810181811067ffffffffffffffff82111715620006ce57620006cd62000706565b5b80604052505050565b7f4e487b7100000000000000000000000000000000000000000000000000000000600052602260045260246000fd5b7f4e487b7100000000000000000000000000000000000000000000000000000000600052604160045260246000fd5b6000601f19601f8301169050919050565b6200075181620005ed565b81146200075d57600080fd5b50565b6200076b816200062b565b81146200077757600080fd5b50565b60805160a05160c05160601c60e05161010051610120516153f5620007cd6000396000612cfc01526000612d3e01526000612d1d01526000612c5201526000612ca801526000612cd101526153f56000f3fe6080604052600436106101c25760003560e01c80636aecec14116100f75780639a9751d111610095578063c54990b011610064578063c54990b01461060c578063d23e048014610649578063d38bfff414610674578063ffc281131461069d576101c2565b80639a9751d114610550578063b2033ce714610579578063bcb39621146105a4578063c11137d1146105cf576101c2565b806385a237a9116100d157806385a237a9146104905780638f963349146104b95780639087b69b146104fe5780639870d7fe14610527576101c2565b80636aecec14146103fd5780636ff96d1714610428578063707112ca14610465576101c2565b80632fffccb3116101645780634c2412a21161013e5780634c2412a2146103535780635aa6e6751461037e5780635e5c06e2146103a95780635fd8c710146103e6576101c2565b80632fffccb3146102cf578063357475891461030c57806336f8b25b14610316576101c2565b806313e7c9d8116101a057806313e7c9d8146102395780631974e0bc146102765780632770c8951461028d5780632aa05d36146102b8576101c2565b80630870035f146101c757806309d802ab146101d157806312065fe01461020e575b600080fd5b6101cf6106da565b005b3480156101dd57600080fd5b506101f860048036038101906101f39190613c66565b610866565b60405161020591906148c4565b60405180910390f35b34801561021a57600080fd5b506102236108a1565b60405161023091906148c4565b60405180910390f35b34801561024557600080fd5b50610260600480360381019061025b9190613a55565b610974565b60405161026d919061438a565b60405180910390f35b34801561028257600080fd5b5061028b610994565b005b34801561029957600080fd5b506102a2610a40565b6040516102af91906148c4565b60405180910390f35b3480156102c457600080fd5b506102cd610a46565b005b3480156102db57600080fd5b506102f660048036038101906102f19190613c12565b610b1a565b60405161030391906148c4565b60405180910390f35b610314610b55565b005b34801561032257600080fd5b5061033d60048036038101906103389190613b15565b610ccb565b60405161034a919061438a565b60405180910390f35b34801561035f57600080fd5b506103686112e9565b60405161037591906148c4565b60405180910390f35b34801561038a57600080fd5b506103936112ef565b6040516103a09190614316565b60405180910390f35b3480156103b557600080fd5b506103d060048036038101906103cb9190613a55565b611315565b6040516103dd919061438a565b60405180910390f35b3480156103f257600080fd5b506103fb611335565b005b34801561040957600080fd5b506104126113cc565b60405161041f919061438a565b60405180910390f35b34801561043457600080fd5b5061044f600480360381019061044a9190613a55565b6113df565b60405161045c91906148c4565b60405180910390f35b34801561047157600080fd5b5061047a6113f7565b60405161048791906148c4565b60405180910390f35b34801561049c57600080fd5b506104b760048036038101906104b29190613cba565b6114ce565b005b3480156104c557600080fd5b506104e060048036038101906104db9190613bd1565b61161a565b6040516104f5999897969594939291906148df565b60405180910390f35b34801561050a57600080fd5b5061052560048036038101906105209190613cba565b61174d565b005b34801561053357600080fd5b5061054e60048036038101906105499190613a55565b611836565b005b34801561055c57600080fd5b5061057760048036038101906105729190613a7e565b6119f2565b005b34801561058557600080fd5b5061058e611dd9565b60405161059b91906144e2565b60405180910390f35b3480156105b057600080fd5b506105b9611e67565b6040516105c691906148c4565b60405180910390f35b3480156105db57600080fd5b506105f660048036038101906105f19190613bd1565b611e6d565b6040516106039190614368565b60405180910390f35b34801561061857600080fd5b50610633600480360381019061062e9190613a55565b611f8a565b60405161064091906148c4565b60405180910390f35b34801561065557600080fd5b5061065e611fa2565b60405161066b91906144c7565b60405180910390f35b34801561068057600080fd5b5061069b60048036038101906106969190613a55565b611fc8565b005b3480156106a957600080fd5b506106c460048036038101906106bf9190613bd1565b61209c565b6040516106d1919061438a565b60405180910390f35b600960149054906101000a900460ff16610729576040517f08c379a000000000000000000000000000000000000000000000000000000000815260040161072090614844565b60405180910390fd5b600c60003373ffffffffffffffffffffffffffffffffffffffff1673ffffffffffffffffffffffffffffffffffffffff16815260200190815260200160002060009054906101000a900460ff16156107b6576040517f08c379a00000000000000000000000000000000000000000000000000000000081526004016107ad90614804565b60405180910390fd5b6001600c60003373ffffffffffffffffffffffffffffffffffffffff1673ffffffffffffffffffffffffffffffffffffffff16815260200190815260200160002060006101000a81548160ff02191690831515021790555034600d60003373ffffffffffffffffffffffffffffffffffffffff1673ffffffffffffffffffffffffffffffffffffffff168152602001908152602001600020600082825461085d9190614ac8565b92505081905550565b600282805160208101820180518482526020830160208501208183528095505050505050602052806000526040600020600091509150505481565b6000600c60003373ffffffffffffffffffffffffffffffffffffffff1673ffffffffffffffffffffffffffffffffffffffff16815260200190815260200160002060009054906101000a900460ff1661092f576040517f08c379a000000000000000000000000000000000000000000000000000000000815260040161092690614864565b60405180910390fd5b600d60003373ffffffffffffffffffffffffffffffffffffffff1673ffffffffffffffffffffffffffffffffffffffff16815260200190815260200160002054905090565b600a6020528060005260406000206000915054906101000a900460ff1681565b600160009054906101000a900473ffffffffffffffffffffffffffffffffffffffff1673ffffffffffffffffffffffffffffffffffffffff163373ffffffffffffffffffffffffffffffffffffffff1614610a24576040517f08c379a0000000000000000000000000000000000000000000000000000000008152600401610a1b90614544565b60405180910390fd5b600160066000828254610a379190614ac8565b92505081905550565b60075481565b600160009054906101000a900473ffffffffffffffffffffffffffffffffffffffff1673ffffffffffffffffffffffffffffffffffffffff163373ffffffffffffffffffffffffffffffffffffffff1614610ad6576040517f08c379a0000000000000000000000000000000000000000000000000000000008152600401610acd90614544565b60405180910390fd5b6000600160006101000a81548173ffffffffffffffffffffffffffffffffffffffff021916908373ffffffffffffffffffffffffffffffffffffffff160217905550565b600482805160208101820180518482526020830160208501208183528095505050505050602052806000526040600020600091509150505481565b600960149054906101000a900460ff16610ba4576040517f08c379a0000000000000000000000000000000000000000000000000000000008152600401610b9b90614844565b60405180910390fd5b600c60003373ffffffffffffffffffffffffffffffffffffffff1673ffffffffffffffffffffffffffffffffffffffff16815260200190815260200160002060009054906101000a900460ff16610c30576040517f08c379a0000000000000000000000000000000000000000000000000000000008152600401610c2790614864565b60405180910390fd5b60003411610c73576040517f08c379a0000000000000000000000000000000000000000000000000000000008152600401610c6a90614724565b60405180910390fd5b34600d60003373ffffffffffffffffffffffffffffffffffffffff1673ffffffffffffffffffffffffffffffffffffffff1681526020019081526020016000206000828254610cc29190614ac8565b92505081905550565b6000600e84604051610cdd91906142c8565b908152602001604051809103902060040160009054906101000a900460ff1615610d3c576040517f08c379a0000000000000000000000000000000000000000000000000000000008152600401610d33906146c4565b60405180910390fd5b845160075411158015610d525750600854855111155b610d91576040517f08c379a0000000000000000000000000000000000000000000000000000000008152600401610d8890614884565b60405180910390fd5b60405180610140016040528060008152602001600073ffffffffffffffffffffffffffffffffffffffff168152602001428152602001600184610dd49190614b1e565b42610ddf9190614ac8565b815260200160011515815260200160008152602001865167ffffffffffffffff811115610e35577f4e487b7100000000000000000000000000000000000000000000000000000000600052604160045260246000fd5b604051908082528060200260200182016040528015610e635781602001602082028036833780820191505090505b50815260200160405180602001604052806000815250815260200160001515815260200160001515815250600e85604051610e9e91906142c8565b90815260200160405180910390206000820151816000015560208201518160010160006101000a81548173ffffffffffffffffffffffffffffffffffffffff021916908373ffffffffffffffffffffffffffffffffffffffff160217905550604082015181600201556060820151816003015560808201518160040160006101000a81548160ff02191690831515021790555060a0820151816005015560c0820151816006019080519060200190610f57929190613571565b5060e0820151816007019080519060200190610f749291906135fb565b506101008201518160080160006101000a81548160ff0219169083151502179055506101208201518160080160016101000a81548160ff02191690831515021790555090505060005b855181101561121f576000868281518110611001577f4e487b7100000000000000000000000000000000000000000000000000000000600052603260045260246000fd5b6020026020010151905061102a8160200151826060015188846000015185604001518a336121cd565b611069576040517f08c379a000000000000000000000000000000000000000000000000000000000815260040161106090614824565b60405180910390fd5b600061107e8260200151836040015189612267565b9050806110c0576040517f08c379a00000000000000000000000000000000000000000000000000000000081526004016110b7906147c4565b60405180910390fd5b81604001516004886040516110d591906142c8565b90815260200160405180910390206000846020015173ffffffffffffffffffffffffffffffffffffffff1673ffffffffffffffffffffffffffffffffffffffff168152602001908152602001600020819055508160400151600e8860405161113d91906142c8565b9081526020016040518091039020600001600082825461115d9190614ac8565b925050819055508160200151600e8860405161117991906142c8565b908152602001604051809103902060060184815481106111c2577f4e487b7100000000000000000000000000000000000000000000000000000000600052603260045260246000fd5b9060005260206000200160006101000a81548173ffffffffffffffffffffffffffffffffffffffff021916908373ffffffffffffffffffffffffffffffffffffffff1602179055505050808061121790614cd4565b915050610fbd565b5033600e8560405161123191906142c8565b908152602001604051809103902060010160006101000a81548173ffffffffffffffffffffffffffffffffffffffff021916908373ffffffffffffffffffffffffffffffffffffffff16021790555082600e8560405161129191906142c8565b9081526020016040518091039020600501819055507faf91b74b6066b038696c3c161cfc914d896dab8365fdcf2792fac3550cf385c6846040516112d591906144e2565b60405180910390a160019050949350505050565b60085481565b600160009054906101000a900473ffffffffffffffffffffffffffffffffffffffff1681565b600c6020528060005260406000206000915054906101000a900460ff1681565b600c60003373ffffffffffffffffffffffffffffffffffffffff1673ffffffffffffffffffffffffffffffffffffffff16815260200190815260200160002060009054906101000a900460ff166113c1576040517f08c379a00000000000000000000000000000000000000000000000000000000081526004016113b890614864565b60405180910390fd5b6113ca33612446565b565b600960149054906101000a900460ff1681565b600d6020528060005260406000206000915090505481565b6000600a60003373ffffffffffffffffffffffffffffffffffffffff1673ffffffffffffffffffffffffffffffffffffffff16815260200190815260200160002060009054906101000a900460ff16611485576040517f08c379a000000000000000000000000000000000000000000000000000000000815260040161147c90614644565b60405180910390fd5b6000600b60003373ffffffffffffffffffffffffffffffffffffffff1673ffffffffffffffffffffffffffffffffffffffff168152602001908152602001600020819055905090565b600960149054906101000a900460ff161561151e576040517f08c379a0000000000000000000000000000000000000000000000000000000008152600401611515906145c4565b60405180910390fd5b600c60003373ffffffffffffffffffffffffffffffffffffffff1673ffffffffffffffffffffffffffffffffffffffff16815260200190815260200160002060009054906101000a900460ff16156115ab576040517f08c379a00000000000000000000000000000000000000000000000000000000081526004016115a290614804565b60405180910390fd5b6001600c60003373ffffffffffffffffffffffffffffffffffffffff1673ffffffffffffffffffffffffffffffffffffffff16815260200190815260200160002060006101000a81548160ff021916908315150217905550600081111561161757611616338261259c565b5b50565b600e818051602081018201805184825260208301602085012081835280955050505050506000915090508060000154908060010160009054906101000a900473ffffffffffffffffffffffffffffffffffffffff16908060020154908060030154908060040160009054906101000a900460ff16908060050154908060070180546116a490614c71565b80601f01602080910402602001604051908101604052809291908181526020018280546116d090614c71565b801561171d5780601f106116f25761010080835404028352916020019161171d565b820191906000526020600020905b81548152906001019060200180831161170057829003601f168201915b5050505050908060080160009054906101000a900460ff16908060080160019054906101000a900460ff16905089565b600960149054906101000a900460ff161561179d576040517f08c379a0000000000000000000000000000000000000000000000000000000008152600401611794906145c4565b60405180910390fd5b600c60003373ffffffffffffffffffffffffffffffffffffffff1673ffffffffffffffffffffffffffffffffffffffff16815260200190815260200160002060009054906101000a900460ff16611829576040517f08c379a000000000000000000000000000000000000000000000000000000000815260040161182090614864565b60405180910390fd5b611833338261259c565b50565b600160009054906101000a900473ffffffffffffffffffffffffffffffffffffffff1673ffffffffffffffffffffffffffffffffffffffff163373ffffffffffffffffffffffffffffffffffffffff16146118c6576040517f08c379a00000000000000000000000000000000000000000000000000000000081526004016118bd90614544565b60405180910390fd5b600a60008273ffffffffffffffffffffffffffffffffffffffff1673ffffffffffffffffffffffffffffffffffffffff16815260200190815260200160002060009054906101000a900460ff16611952576040517f08c379a000000000000000000000000000000000000000000000000000000000815260040161194990614524565b60405180910390fd5b6001600a60008373ffffffffffffffffffffffffffffffffffffffff1673ffffffffffffffffffffffffffffffffffffffff16815260200190815260200160002060006101000a81548160ff0219169083151502179055506000600b60008373ffffffffffffffffffffffffffffffffffffffff1673ffffffffffffffffffffffffffffffffffffffff1681526020019081526020016000208190555050565b600a60003373ffffffffffffffffffffffffffffffffffffffff1673ffffffffffffffffffffffffffffffffffffffff16815260200190815260200160002060009054906101000a900460ff16611a7e576040517f08c379a0000000000000000000000000000000000000000000000000000000008152600401611a7590614644565b60405180910390fd5b600e82604051611a8e91906142c8565b908152602001604051809103902060040160009054906101000a900460ff16611aec576040517f08c379a0000000000000000000000000000000000000000000000000000000008152600401611ae3906145e4565b60405180910390fd5b3373ffffffffffffffffffffffffffffffffffffffff16600e83604051611b1391906142c8565b908152602001604051809103902060010160009054906101000a900473ffffffffffffffffffffffffffffffffffffffff1673ffffffffffffffffffffffffffffffffffffffff1614611b9b576040517f08c379a0000000000000000000000000000000000000000000000000000000008152600401611b9290614584565b60405180910390fd5b60005b8351811015611d21576000848281518110611be2577f4e487b7100000000000000000000000000000000000000000000000000000000600052603260045260246000fd5b60200260200101519050611bff8160000151826040015186612688565b611c3e576040517f08c379a0000000000000000000000000000000000000000000000000000000008152600401611c3590614784565b60405180910390fd5b6040518060600160405280826060015181526020018260200151815260200160001515815250600385604051611c7491906142c8565b90815260200160405180910390206000836000015173ffffffffffffffffffffffffffffffffffffffff1673ffffffffffffffffffffffffffffffffffffffff1681526020019081526020016000206000820151816000019080519060200190611cdf9291906135fb565b506020820151816001015560408201518160020160006101000a81548160ff021916908315150217905550905050508080611d1990614cd4565b915050611b9e565b5080600e83604051611d3391906142c8565b90815260200160405180910390206007019080519060200190611d579291906135fb565b506001600e83604051611d6a91906142c8565b908152602001604051809103902060080160006101000a81548160ff021916908315150217905550611d9c338361272d565b507f153fffcdd7178eec416a270a61b54a20db181360c9507267e9cecdce5aabad3e82604051611dcc91906144e2565b60405180910390a1505050565b60058054611de690614c71565b80601f0160208091040260200160405190810160405280929190818152602001828054611e1290614c71565b8015611e5f5780601f10611e3457610100808354040283529160200191611e5f565b820191906000526020600020905b815481529060010190602001808311611e4257829003601f168201915b505050505081565b60065481565b6060600e82604051611e7f91906142c8565b908152602001604051809103902060040160009054906101000a900460ff16611edd576040517f08c379a0000000000000000000000000000000000000000000000000000000008152600401611ed490614764565b60405180910390fd5b600e82604051611eed91906142c8565b9081526020016040518091039020600601805480602002602001604051908101604052809291908181526020018280548015611f7e57602002820191906000526020600020905b8160009054906101000a900473ffffffffffffffffffffffffffffffffffffffff1673ffffffffffffffffffffffffffffffffffffffff1681526020019060010190808311611f34575b50505050509050919050565b600b6020528060005260406000206000915090505481565b600960009054906101000a900473ffffffffffffffffffffffffffffffffffffffff1681565b600160009054906101000a900473ffffffffffffffffffffffffffffffffffffffff1673ffffffffffffffffffffffffffffffffffffffff163373ffffffffffffffffffffffffffffffffffffffff1614612058576040517f08c379a000000000000000000000000000000000000000000000000000000000815260040161204f90614544565b60405180910390fd5b80600160006101000a81548173ffffffffffffffffffffffffffffffffffffffff021916908373ffffffffffffffffffffffffffffffffffffffff16021790555050565b6000600e826040516120ae91906142c8565b908152602001604051809103902060040160009054906101000a900460ff1661210c576040517f08c379a0000000000000000000000000000000000000000000000000000000008152600401612103906145e4565b60405180910390fd5b600e8260405161211c91906142c8565b908152602001604051809103902060080160009054906101000a900460ff161561217b576040517f08c379a000000000000000000000000000000000000000000000000000000000815260040161217290614684565b60405180910390fd5b612185338361293d565b6121c4576040517f08c379a00000000000000000000000000000000000000000000000000000000081526004016121bb906146a4565b60405180910390fd5b60019050919050565b600080612219600054888051906020012088805190602001208888886040516020016121fe96959493929190614421565b60405160208183030381529060405280519060200120612b84565b90506000612227828a612b9e565b90508973ffffffffffffffffffffffffffffffffffffffff168173ffffffffffffffffffffffffffffffffffffffff161492505050979650505050505050565b6000600c60008573ffffffffffffffffffffffffffffffffffffffff1673ffffffffffffffffffffffffffffffffffffffff16815260200190815260200160002060009054906101000a900460ff166122f5576040517f08c379a00000000000000000000000000000000000000000000000000000000081526004016122ec90614864565b60405180910390fd5b82600d60008673ffffffffffffffffffffffffffffffffffffffff1673ffffffffffffffffffffffffffffffffffffffff168152602001908152602001600020541015612377576040517f08c379a000000000000000000000000000000000000000000000000000000000815260040161236e90614744565b60405180910390fd5b600e8260405161238791906142c8565b908152602001604051809103902060040160009054906101000a900460ff166123e5576040517f08c379a00000000000000000000000000000000000000000000000000000000081526004016123dc906145a4565b60405180910390fd5b82600d60008673ffffffffffffffffffffffffffffffffffffffff1673ffffffffffffffffffffffffffffffffffffffff16815260200190815260200160002060008282546124349190614b78565b92505081905550600190509392505050565b6000600d60008373ffffffffffffffffffffffffffffffffffffffff1673ffffffffffffffffffffffffffffffffffffffff16815260200190815260200160002054116124c8576040517f08c379a00000000000000000000000000000000000000000000000000000000081526004016124bf90614664565b60405180910390fd5b6000600d60008373ffffffffffffffffffffffffffffffffffffffff1673ffffffffffffffffffffffffffffffffffffffff1681526020019081526020016000205490506000600d60008473ffffffffffffffffffffffffffffffffffffffff1673ffffffffffffffffffffffffffffffffffffffff168152602001908152602001600020819055508173ffffffffffffffffffffffffffffffffffffffff166108fc829081150290604051600060405180830381858888f19350505050158015612597573d6000803e3d6000fd5b505050565b600081116125df576040517f08c379a00000000000000000000000000000000000000000000000000000000081526004016125d690614724565b60405180910390fd5b61262e823083600960009054906101000a900473ffffffffffffffffffffffffffffffffffffffff1673ffffffffffffffffffffffffffffffffffffffff16612bc5909392919063ffffffff16565b80600d60008473ffffffffffffffffffffffffffffffffffffffff1673ffffffffffffffffffffffffffffffffffffffff168152602001908152602001600020600082825461267d9190614ac8565b925050819055505050565b6000806126e37f6358c9041719800e8ae9ff08edeebd60cacfa2549e6252f76b1adfa0ff61ca7484805190602001206040516020016126c89291906143a5565b60405160208183030381529060405280519060200120612b84565b905060006126f18286612b9e565b90508573ffffffffffffffffffffffffffffffffffffffff168173ffffffffffffffffffffffffffffffffffffffff1614925050509392505050565b6000600a60008473ffffffffffffffffffffffffffffffffffffffff1673ffffffffffffffffffffffffffffffffffffffff16815260200190815260200160002060009054906101000a900460ff166127bb576040517f08c379a00000000000000000000000000000000000000000000000000000000081526004016127b290614644565b60405180910390fd5b600e826040516127cb91906142c8565b908152602001604051809103902060040160009054906101000a900460ff16612829576040517f08c379a0000000000000000000000000000000000000000000000000000000008152600401612820906145a4565b60405180910390fd5b600e8260405161283991906142c8565b908152602001604051809103902060050154600e8360405161285b91906142c8565b9081526020016040518091039020600001600082825461287b9190614b78565b92505081905550600e8260405161289291906142c8565b908152602001604051809103902060050154600b60008573ffffffffffffffffffffffffffffffffffffffff1673ffffffffffffffffffffffffffffffffffffffff16815260200190815260200160002060008282546128f29190614ac8565b925050819055506001600e8360405161290b91906142c8565b908152602001604051809103902060080160016101000a81548160ff0219169083151502179055506001905092915050565b60008060038360405161295091906142c8565b908152602001604051809103902060003373ffffffffffffffffffffffffffffffffffffffff1673ffffffffffffffffffffffffffffffffffffffff1681526020019081526020016000206001015414156129e0576040517f08c379a00000000000000000000000000000000000000000000000000000000081526004016129d7906148a4565b60405180910390fd5b6003826040516129f091906142c8565b908152602001604051809103902060003373ffffffffffffffffffffffffffffffffffffffff1673ffffffffffffffffffffffffffffffffffffffff16815260200190815260200160002060020160009054906101000a900460ff1615612a8c576040517f08c379a0000000000000000000000000000000000000000000000000000000008152600401612a83906146e4565b60405180910390fd5b600e82604051612a9c91906142c8565b908152602001604051809103902060000154600d60008573ffffffffffffffffffffffffffffffffffffffff1673ffffffffffffffffffffffffffffffffffffffff1681526020019081526020016000206000828254612afc9190614ac8565b925050819055506001600383604051612b1591906142c8565b908152602001604051809103902060003373ffffffffffffffffffffffffffffffffffffffff1673ffffffffffffffffffffffffffffffffffffffff16815260200190815260200160002060020160006101000a81548160ff0219169083151502179055506001905092915050565b6000612b97612b91612c4e565b83612d68565b9050919050565b6000806000612bad8585612d9b565b91509150612bba81612e1e565b819250505092915050565b612c48846323b872dd60e01b858585604051602401612be693929190614331565b604051602081830303815290604052907bffffffffffffffffffffffffffffffffffffffffffffffffffffffff19166020820180517bffffffffffffffffffffffffffffffffffffffffffffffffffffffff838183161783525050505061316f565b50505050565b60007f000000000000000000000000000000000000000000000000000000000000000073ffffffffffffffffffffffffffffffffffffffff163073ffffffffffffffffffffffffffffffffffffffff16148015612cca57507f000000000000000000000000000000000000000000000000000000000000000046145b15612cf7577f00000000000000000000000000000000000000000000000000000000000000009050612d65565b612d627f00000000000000000000000000000000000000000000000000000000000000007f00000000000000000000000000000000000000000000000000000000000000007f0000000000000000000000000000000000000000000000000000000000000000613236565b90505b90565b60008282604051602001612d7d9291906142df565b60405160208183030381529060405280519060200120905092915050565b600080604183511415612ddd5760008060006020860151925060408601519150606086015160001a9050612dd187828585613270565b94509450505050612e17565b604083511415612e0e576000806020850151915060408501519050612e0386838361337d565b935093505050612e17565b60006002915091505b9250929050565b60006004811115612e58577f4e487b7100000000000000000000000000000000000000000000000000000000600052602160045260246000fd5b816004811115612e91577f4e487b7100000000000000000000000000000000000000000000000000000000600052602160045260246000fd5b1415612e9c5761316c565b60016004811115612ed6577f4e487b7100000000000000000000000000000000000000000000000000000000600052602160045260246000fd5b816004811115612f0f577f4e487b7100000000000000000000000000000000000000000000000000000000600052602160045260246000fd5b1415612f50576040517f08c379a0000000000000000000000000000000000000000000000000000000008152600401612f4790614504565b60405180910390fd5b60026004811115612f8a577f4e487b7100000000000000000000000000000000000000000000000000000000600052602160045260246000fd5b816004811115612fc3577f4e487b7100000000000000000000000000000000000000000000000000000000600052602160045260246000fd5b1415613004576040517f08c379a0000000000000000000000000000000000000000000000000000000008152600401612ffb90614564565b60405180910390fd5b6003600481111561303e577f4e487b7100000000000000000000000000000000000000000000000000000000600052602160045260246000fd5b816004811115613077577f4e487b7100000000000000000000000000000000000000000000000000000000600052602160045260246000fd5b14156130b8576040517f08c379a00000000000000000000000000000000000000000000000000000000081526004016130af90614604565b60405180910390fd5b6004808111156130f1577f4e487b7100000000000000000000000000000000000000000000000000000000600052602160045260246000fd5b81600481111561312a577f4e487b7100000000000000000000000000000000000000000000000000000000600052602160045260246000fd5b141561316b576040517f08c379a000000000000000000000000000000000000000000000000000000000815260040161316290614704565b60405180910390fd5b5b50565b60006131d1826040518060400160405280602081526020017f5361666545524332303a206c6f772d6c6576656c2063616c6c206661696c65648152508573ffffffffffffffffffffffffffffffffffffffff166133cb9092919063ffffffff16565b905060008151111561323157808060200190518101906131f19190613ba8565b613230576040517f08c379a0000000000000000000000000000000000000000000000000000000008152600401613227906147e4565b60405180910390fd5b5b505050565b600083838346306040516020016132519594939291906143ce565b6040516020818303038152906040528051906020012090509392505050565b6000807f7fffffffffffffffffffffffffffffff5d576e7357a4501ddfe92f46681b20a08360001c11156132ab576000600391509150613374565b601b8560ff16141580156132c35750601c8560ff1614155b156132d5576000600491509150613374565b6000600187878787604051600081526020016040526040516132fa9493929190614482565b6020604051602081039080840390855afa15801561331c573d6000803e3d6000fd5b505050602060405103519050600073ffffffffffffffffffffffffffffffffffffffff168173ffffffffffffffffffffffffffffffffffffffff16141561336b57600060019250925050613374565b80600092509250505b94509492505050565b6000806000807f7fffffffffffffffffffffffffffffffffffffffffffffffffffffffffffffff85169150601b8560ff1c0190506133bd87828885613270565b935093505050935093915050565b60606133da84846000856133e3565b90509392505050565b606082471015613428576040517f08c379a000000000000000000000000000000000000000000000000000000000815260040161341f90614624565b60405180910390fd5b613431856134f7565b613470576040517f08c379a0000000000000000000000000000000000000000000000000000000008152600401613467906147a4565b60405180910390fd5b6000808673ffffffffffffffffffffffffffffffffffffffff16858760405161349991906142b1565b60006040518083038185875af1925050503d80600081146134d6576040519150601f19603f3d011682016040523d82523d6000602084013e6134db565b606091505b50915091506134eb82828661350a565b92505050949350505050565b600080823b905060008111915050919050565b6060831561351a5782905061356a565b60008351111561352d5782518084602001fd5b816040517f08c379a000000000000000000000000000000000000000000000000000000000815260040161356191906144e2565b60405180910390fd5b9392505050565b8280548282559060005260206000209081019282156135ea579160200282015b828111156135e95782518260006101000a81548173ffffffffffffffffffffffffffffffffffffffff021916908373ffffffffffffffffffffffffffffffffffffffff16021790555091602001919060010190613591565b5b5090506135f79190613681565b5090565b82805461360790614c71565b90600052602060002090601f0160209004810192826136295760008555613670565b82601f1061364257805160ff1916838001178555613670565b82800160010185558215613670579182015b8281111561366f578251825591602001919060010190613654565b5b50905061367d9190613681565b5090565b5b8082111561369a576000816000905550600101613682565b5090565b60006136b16136ac84614998565b614973565b905080838252602082019050828560208602820111156136d057600080fd5b60005b8581101561371a57813567ffffffffffffffff8111156136f257600080fd5b8086016136ff89826138f8565b855260208501945060208401935050506001810190506136d3565b5050509392505050565b6000613737613732846149c4565b614973565b9050808382526020820190508285602086028201111561375657600080fd5b60005b858110156137a057813567ffffffffffffffff81111561377857600080fd5b808601613785898261399c565b85526020850194506020840193505050600181019050613759565b5050509392505050565b60006137bd6137b8846149f0565b614973565b9050828152602081018484840111156137d557600080fd5b6137e0848285614c2f565b509392505050565b60006137fb6137f684614a21565b614973565b90508281526020810184848401111561381357600080fd5b61381e848285614c2f565b509392505050565b6000813590506138358161537a565b92915050565b600082601f83011261384c57600080fd5b813561385c84826020860161369e565b91505092915050565b600082601f83011261387657600080fd5b8135613886848260208601613724565b91505092915050565b60008151905061389e81615391565b92915050565b600082601f8301126138b557600080fd5b81356138c58482602086016137aa565b91505092915050565b600082601f8301126138df57600080fd5b81356138ef8482602086016137e8565b91505092915050565b60006080828403121561390a57600080fd5b6139146080614973565b9050600061392484828501613826565b600083015250602061393884828501613a40565b602083015250604082013567ffffffffffffffff81111561395857600080fd5b613964848285016138a4565b604083015250606082013567ffffffffffffffff81111561398457600080fd5b613990848285016138ce565b60608301525092915050565b6000608082840312156139ae57600080fd5b6139b86080614973565b9050600082013567ffffffffffffffff8111156139d457600080fd5b6139e0848285016138ce565b60008301525060206139f484828501613826565b6020830152506040613a0884828501613a40565b604083015250606082013567ffffffffffffffff811115613a2857600080fd5b613a34848285016138a4565b60608301525092915050565b600081359050613a4f816153a8565b92915050565b600060208284031215613a6757600080fd5b6000613a7584828501613826565b91505092915050565b600080600060608486031215613a9357600080fd5b600084013567ffffffffffffffff811115613aad57600080fd5b613ab98682870161383b565b935050602084013567ffffffffffffffff811115613ad657600080fd5b613ae2868287016138ce565b925050604084013567ffffffffffffffff811115613aff57600080fd5b613b0b868287016138ce565b9150509250925092565b60008060008060808587031215613b2b57600080fd5b600085013567ffffffffffffffff811115613b4557600080fd5b613b5187828801613865565b945050602085013567ffffffffffffffff811115613b6e57600080fd5b613b7a878288016138ce565b9350506040613b8b87828801613a40565b9250506060613b9c87828801613a40565b91505092959194509250565b600060208284031215613bba57600080fd5b6000613bc88482850161388f565b91505092915050565b600060208284031215613be357600080fd5b600082013567ffffffffffffffff811115613bfd57600080fd5b613c09848285016138ce565b91505092915050565b60008060408385031215613c2557600080fd5b600083013567ffffffffffffffff811115613c3f57600080fd5b613c4b858286016138ce565b9250506020613c5c85828601613826565b9150509250929050565b60008060408385031215613c7957600080fd5b600083013567ffffffffffffffff811115613c9357600080fd5b613c9f858286016138ce565b9250506020613cb085828601613a40565b9150509250929050565b600060208284031215613ccc57600080fd5b6000613cda84828501613a40565b91505092915050565b6000613cef8383613cfb565b60208301905092915050565b613d0481614bac565b82525050565b613d1381614bac565b82525050565b6000613d2482614a62565b613d2e8185614a90565b9350613d3983614a52565b8060005b83811015613d6a578151613d518882613ce3565b9750613d5c83614a83565b925050600181019050613d3d565b5085935050505092915050565b613d8081614bbe565b82525050565b613d8f81614bca565b82525050565b613da6613da182614bca565b614d1d565b82525050565b6000613db782614a6d565b613dc18185614aa1565b9350613dd1818560208601614c3e565b80840191505092915050565b613de681614c0b565b82525050565b6000613df782614a78565b613e018185614aac565b9350613e11818560208601614c3e565b613e1a81614db4565b840191505092915050565b6000613e3082614a78565b613e3a8185614abd565b9350613e4a818560208601614c3e565b80840191505092915050565b6000613e63601883614aac565b9150613e6e82614dc5565b602082019050919050565b6000613e86601883614aac565b9150613e9182614dee565b602082019050919050565b6000613ea9601883614aac565b9150613eb482614e17565b602082019050919050565b6000613ecc601f83614aac565b9150613ed782614e40565b602082019050919050565b6000613eef601b83614aac565b9150613efa82614e69565b602082019050919050565b6000613f12600283614abd565b9150613f1d82614e92565b600282019050919050565b6000613f35601583614aac565b9150613f4082614ebb565b602082019050919050565b6000613f58601683614aac565b9150613f6382614ee4565b602082019050919050565b6000613f7b601483614aac565b9150613f8682614f0d565b602082019050919050565b6000613f9e602283614aac565b9150613fa982614f36565b604082019050919050565b6000613fc1602683614aac565b9150613fcc82614f85565b604082019050919050565b6000613fe4601283614aac565b9150613fef82614fd4565b602082019050919050565b6000614007601e83614aac565b915061401282614ffd565b602082019050919050565b600061402a601783614aac565b915061403582615026565b602082019050919050565b600061404d601983614aac565b91506140588261504f565b602082019050919050565b6000614070601383614aac565b915061407b82615078565b602082019050919050565b6000614093601783614aac565b915061409e826150a1565b602082019050919050565b60006140b6602283614aac565b91506140c1826150ca565b604082019050919050565b60006140d9601683614aac565b91506140e482615119565b602082019050919050565b60006140fc601483614aac565b915061410782615142565b602082019050919050565b600061411f601583614aac565b915061412a8261516b565b602082019050919050565b6000614142601383614aac565b915061414d82615194565b602082019050919050565b6000614165601d83614aac565b9150614170826151bd565b602082019050919050565b6000614188601983614aac565b9150614193826151e6565b602082019050919050565b60006141ab602a83614aac565b91506141b68261520f565b604082019050919050565b60006141ce601683614aac565b91506141d98261525e565b602082019050919050565b60006141f1602183614aac565b91506141fc82615287565b604082019050919050565b6000614214602083614aac565b915061421f826152d6565b602082019050919050565b6000614237601683614aac565b9150614242826152ff565b602082019050919050565b600061425a600e83614aac565b915061426582615328565b602082019050919050565b600061427d601983614aac565b915061428882615351565b602082019050919050565b61429c81614bf4565b82525050565b6142ab81614bfe565b82525050565b60006142bd8284613dac565b915081905092915050565b60006142d48284613e25565b915081905092915050565b60006142ea82613f05565b91506142f68285613d95565b6020820191506143068284613d95565b6020820191508190509392505050565b600060208201905061432b6000830184613d0a565b92915050565b60006060820190506143466000830186613d0a565b6143536020830185613d0a565b6143606040830184614293565b949350505050565b600060208201905081810360008301526143828184613d19565b905092915050565b600060208201905061439f6000830184613d77565b92915050565b60006040820190506143ba6000830185613d86565b6143c76020830184613d86565b9392505050565b600060a0820190506143e36000830188613d86565b6143f06020830187613d86565b6143fd6040830186613d86565b61440a6060830185614293565b6144176080830184613d0a565b9695505050505050565b600060c0820190506144366000830189613d86565b6144436020830188613d86565b6144506040830187613d86565b61445d6060830186614293565b61446a6080830185614293565b61447760a0830184613d0a565b979650505050505050565b60006080820190506144976000830187613d86565b6144a460208301866142a2565b6144b16040830185613d86565b6144be6060830184613d86565b95945050505050565b60006020820190506144dc6000830184613ddd565b92915050565b600060208201905081810360008301526144fc8184613dec565b905092915050565b6000602082019050818103600083015261451d81613e56565b9050919050565b6000602082019050818103600083015261453d81613e79565b9050919050565b6000602082019050818103600083015261455d81613e9c565b9050919050565b6000602082019050818103600083015261457d81613ebf565b9050919050565b6000602082019050818103600083015261459d81613ee2565b9050919050565b600060208201905081810360008301526145bd81613f28565b9050919050565b600060208201905081810360008301526145dd81613f4b565b9050919050565b600060208201905081810360008301526145fd81613f6e565b9050919050565b6000602082019050818103600083015261461d81613f91565b9050919050565b6000602082019050818103600083015261463d81613fb4565b9050919050565b6000602082019050818103600083015261465d81613fd7565b9050919050565b6000602082019050818103600083015261467d81613ffa565b9050919050565b6000602082019050818103600083015261469d8161401d565b9050919050565b600060208201905081810360008301526146bd81614040565b9050919050565b600060208201905081810360008301526146dd81614063565b9050919050565b600060208201905081810360008301526146fd81614086565b9050919050565b6000602082019050818103600083015261471d816140a9565b9050919050565b6000602082019050818103600083015261473d816140cc565b9050919050565b6000602082019050818103600083015261475d816140ef565b9050919050565b6000602082019050818103600083015261477d81614112565b9050919050565b6000602082019050818103600083015261479d81614135565b9050919050565b600060208201905081810360008301526147bd81614158565b9050919050565b600060208201905081810360008301526147dd8161417b565b9050919050565b600060208201905081810360008301526147fd8161419e565b9050919050565b6000602082019050818103600083015261481d816141c1565b9050919050565b6000602082019050818103600083015261483d816141e4565b9050919050565b6000602082019050818103600083015261485d81614207565b9050919050565b6000602082019050818103600083015261487d8161422a565b9050919050565b6000602082019050818103600083015261489d8161424d565b9050919050565b600060208201905081810360008301526148bd81614270565b9050919050565b60006020820190506148d96000830184614293565b92915050565b6000610120820190506148f5600083018c614293565b614902602083018b613d0a565b61490f604083018a614293565b61491c6060830189614293565b6149296080830188613d77565b61493660a0830187614293565b81810360c08301526149488186613dec565b905061495760e0830185613d77565b614965610100830184613d77565b9a9950505050505050505050565b600061497d61498e565b90506149898282614ca3565b919050565b6000604051905090565b600067ffffffffffffffff8211156149b3576149b2614d85565b5b602082029050602081019050919050565b600067ffffffffffffffff8211156149df576149de614d85565b5b602082029050602081019050919050565b600067ffffffffffffffff821115614a0b57614a0a614d85565b5b614a1482614db4565b9050602081019050919050565b600067ffffffffffffffff821115614a3c57614a3b614d85565b5b614a4582614db4565b9050602081019050919050565b6000819050602082019050919050565b600081519050919050565b600081519050919050565b600081519050919050565b6000602082019050919050565b600082825260208201905092915050565b600081905092915050565b600082825260208201905092915050565b600081905092915050565b6000614ad382614bf4565b9150614ade83614bf4565b9250827fffffffffffffffffffffffffffffffffffffffffffffffffffffffffffffffff03821115614b1357614b12614d27565b5b828201905092915050565b6000614b2982614bf4565b9150614b3483614bf4565b9250817fffffffffffffffffffffffffffffffffffffffffffffffffffffffffffffffff0483118215151615614b6d57614b6c614d27565b5b828202905092915050565b6000614b8382614bf4565b9150614b8e83614bf4565b925082821015614ba157614ba0614d27565b5b828203905092915050565b6000614bb782614bd4565b9050919050565b60008115159050919050565b6000819050919050565b600073ffffffffffffffffffffffffffffffffffffffff82169050919050565b6000819050919050565b600060ff82169050919050565b6000614c1682614c1d565b9050919050565b6000614c2882614bd4565b9050919050565b82818337600083830152505050565b60005b83811015614c5c578082015181840152602081019050614c41565b83811115614c6b576000848401525b50505050565b60006002820490506001821680614c8957607f821691505b60208210811415614c9d57614c9c614d56565b5b50919050565b614cac82614db4565b810181811067ffffffffffffffff82111715614ccb57614cca614d85565b5b80604052505050565b6000614cdf82614bf4565b91507fffffffffffffffffffffffffffffffffffffffffffffffffffffffffffffffff821415614d1257614d11614d27565b5b600182019050919050565b6000819050919050565b7f4e487b7100000000000000000000000000000000000000000000000000000000600052601160045260246000fd5b7f4e487b7100000000000000000000000000000000000000000000000000000000600052602260045260246000fd5b7f4e487b7100000000000000000000000000000000000000000000000000000000600052604160045260246000fd5b6000601f19601f8301169050919050565b7f45434453413a20696e76616c6964207369676e61747572650000000000000000600082015250565b7f4f70657261746f7220616c726561647920657869737473210000000000000000600082015250565b7f4f6e6c7920676f7665726e616e63652063616e2063616c6c0000000000000000600082015250565b7f45434453413a20696e76616c6964207369676e6174757265206c656e67746800600082015250565b7f4f70657261746f7220646f6573206e6f74206f776e206c6f6262790000000000600082015250565b7f1901000000000000000000000000000000000000000000000000000000000000600082015250565b7f6c6f62627920646f6573206e6f74206578697374730000000000000000000000600082015250565b7f596f752063616e6e6f74206465706f7369742045544800000000000000000000600082015250565b7f6c6f62627920646f6573206e6f74206578697374000000000000000000000000600082015250565b7f45434453413a20696e76616c6964207369676e6174757265202773272076616c60008201527f7565000000000000000000000000000000000000000000000000000000000000602082015250565b7f416464726573733a20696e73756666696369656e742062616c616e636520666f60008201527f722063616c6c0000000000000000000000000000000000000000000000000000602082015250565b7f4f70657261746f72206e6f7420666f756e640000000000000000000000000000600082015250565b7f496e737566666963656e7420616d6f756e7420746f2077697468647261770000600082015250565b7f726573756c74206e6f74206465636c6172656420796574000000000000000000600082015250565b7f4661696c656420746f2072656465656d2077696e6e696e677300000000000000600082015250565b7f6c6f626279206172656164792065786973747300000000000000000000000000600082015250565b7f616c72656164792072656465656d656420616d6f756e74000000000000000000600082015250565b7f45434453413a20696e76616c6964207369676e6174757265202776272076616c60008201527f7565000000000000000000000000000000000000000000000000000000000000602082015250565b7f496e76616c6964206465706f73697420616d6f756e7400000000000000000000600082015250565b7f696e73756666696369656e742042616c616e6365000000000000000000000000600082015250565b7f6c6f62627920646f6573206e6f74206578697374200000000000000000000000600082015250565b7f496e76616c6964206a6f696e696e67204b657900000000000000000000000000600082015250565b7f416464726573733a2063616c6c20746f206e6f6e2d636f6e7472616374000000600082015250565b7f6661696c656420746f207472616e7366657220616d6f756e7400000000000000600082015250565b7f5361666545524332303a204552433230206f7065726174696f6e20646964206e60008201527f6f74207375636365656400000000000000000000000000000000000000000000602082015250565b7f506c6179657220616c7265616479206578697374732100000000000000000000600082015250565b7f6661696c656420746f20766572696679207469636b6574207369676e6174757260008201527f6500000000000000000000000000000000000000000000000000000000000000602082015250565b7f596f752063616e6e6f74206465706f7369742049455243323020746f6b656e73600082015250565b7f506c6179657220646f6573206e6f742065786973742100000000000000000000600082015250565b7f696e76616c6964206c656e677468000000000000000000000000000000000000600082015250565b7f6e6f2076616c756520666f756e6420666f7220726573756c7400000000000000600082015250565b61538381614bac565b811461538e57600080fd5b50565b61539a81614bbe565b81146153a557600080fd5b50565b6153b181614bf4565b81146153bc57600080fd5b5056fea2646970667358221220ab06db4dae048fffa2351c85bde292707f88e58b553484c6b76ef426f28afb6e64736f6c63430008040033",
  "linkReferences": {},
  "deployedLinkReferences": {}
}